:100000000C945D000C9485000C9485000C94850084
:100010000C9485000C9485000C9485000C9485004C
:100020000C9485000C9485000C9485000C9485003C
:100030000C9485000C9485000C9485000C9485002C
:100040000C94CA060C9485000C94B3020C948D0297
:100050000C9485000C9485000C9485000C9485000C
:100060000C946B030C948500000000080002010052
:100070000003040700000000000000000000000072
:10008000250028002B0000000000240027002A0083
:10009000040404040404040402020202020203032E
:1000A0000303030301020408102040800102040836
:1000B0001020010204081020830911241FBECFEF75
:1000C000D8E0DEBFCDBF11E0A0E0B1E0E0E5F4E1B3
:1000D00002C005900D92A836B107D9F722E0A8E634
:1000E000B1E001C01D92A63EB207E1F710E0CDE5F8
:1000F000D0E004C02197FE010E941B0ACC35D10735
:10010000C9F70E9414070C94260A0C940000089565
:100110000895CF92DF92EF92FF920F931F93CF93A8
:10012000DF936C017A018B01C0E0D0E0CE15DF05D2
:1001300081F0D8016D918D01D601ED91FC91019076
:10014000F081E02DC6010995892B11F02196EECFA3
:100150007E01C701DF91CF911F910F91FF90EF902A
:10016000DF90CF900895FC01538D448D252F30E012
:10017000842F90E0821B930B541710F0CF960895B4
:1001800001970895FC01918D828D981761F0828D01
:10019000DF01A80FB11D5D968C91928D9F5F9F73BB
:1001A000928F90E008958FEF9FEF0895FC01918D5D
:1001B000828D981731F0828DE80FF11D858D90E0CA
:1001C00008958FEF9FEF0895FC01918D228D892F67
:1001D00090E0805C9F4F821B91098F73992708954F
:1001E0008CE192E00E94E40021E0892B09F420E0F8
:1001F000822F0895FC01848DDF01A80FB11DA35A41
:10020000BF4F2C91848D90E001968F739927848F36
:10021000A689B7892C93A089B1898C918370806459
:100220008C93938D848D981306C00288F389E02DFA
:1002300080818F7D80830895EF92FF920F931F93AB
:10024000CF93DF93EC0181E0888F9B8D8C8D981389
:1002500005C0E889F989808185FD26C0F62E0B8DC1
:1002600010E00F5F1F4F0F731127E02E8C8DE812E7
:100270000CC00FB607FCFACFE889F989808185FFA9
:10028000F5CFCE010E94FA00F1CF8B8DFE01E80F71
:10029000F11DE35AFF4FF0829FB7F8940B8FEA8964
:1002A000FB89808180620AC09FB7F894EE89FF893C
:1002B0006083E889F98980818370806480839FBF2F
:1002C00081E090E0DF91CF911F910F91FF90EF902F
:1002D0000895CF93DF93EC01888D8823C9F0EA89D4
:1002E000FB89808185FD05C0A889B9898C9186FD2F
:1002F0000FC00FB607FCF5CF808185FFF2CFA8892C
:10030000B9898C9185FFEDCFCE010E94FA00E7CF2D
:10031000DF91CF91089580E090E0892B29F00E9431
:10032000F00081110C9400000895FC01908190531D
:100330009A3008F090E0818180532AE0929F800DEE
:100340001124089585ED8093BC008091BC0084FD4C
:10035000FCCF1092F701089540918801262F30E0DC
:10036000240F311D21323105DCF42091F7012430B6
:10037000C9F4FC0180E090E0861758F430918801C0
:100380002191DC01A859BE4FA30FB11D2C930196FA
:10039000F3CF80918801680F6093880180E0089511
:1003A00081E0089582E008950895E091B001809180
:1003B000AF01E81730F4F0E0EF54FE4F808190E099
:1003C00008958FEF9FEF08959091B0018091AF0154
:1003D000981750F4E92FF0E0EF54FE4F208130E001
:1003E0009F5F9093B00102C02FEF3FEFC9010895C6
:1003F0008091AF0190E02091B001821B9109089596
:10040000CF92DF92EF92FF920F931F93CF93DF93E0
:100410007C01CB018A012091F801222389F0EB01B4
:100420006B01C40ED51ECC15DD0569F06991D701AD
:10043000ED91FC910190F081E02DC7010995F3CF7A
:10044000642F0E94AC01C801DF91CF911F910F91E1
:10045000FF90EF90DF90CF900895CF93DF931F929E
:10046000CDB7DEB769832091F8012223D1F0209126
:100470001B02203240F021E030E0FC013383228374
:1004800080E090E015C08091F901E82FF0E0E6509F
:10049000FE4F998190838F5F8093F90180931B02B7
:1004A00005C061E0CE0101960E94AC0181E090E0C0
:1004B0000F90DF91CF910895089580E090E0089526
:1004C000CF93DF93EC0160E08E810E94B60561E07E
:1004D0008E810E94B60560E08E810E94B6058BE891
:1004E00091E00197F1F7DF91CF9108950E94210AE1
:1004F0006115710579F0FB0101900020E9F7319752
:10050000AF01461B570BDC01ED91FC910280F3819A
:10051000E02D099480E090E008951F920F920FB6AD
:100520000F9211242F933F934F935F936F937F9379
:100530008F939F93AF93BF93EF93FF938CE192E0E0
:100540000E94FA00FF91EF91BF91AF919F918F911F
:100550007F916F915F914F913F912F910F900FBEBF
:100560000F901F9018951F920F920FB60F921124A3
:100570002F938F939F93EF93FF93E0912C02F09131
:100580002D028081E0913202F091330282FD12C08F
:100590009081809135028F5F8F7320913602821790
:1005A00051F0E0913502F0E0E45EFD4F958F8093CD
:1005B000350201C08081FF91EF919F918F912F9122
:1005C0000F900FBE0F901F901895CF92DF92EF9271
:1005D000FF920F931F93CF93DF936C017C0187E011
:1005E000E80EF11CC0E0D0E0062F10E0B8010C2EA0
:1005F00002C0759567950A94E2F76170F7018191E1
:100600007F010E94B6052196C430D10579F7C60155
:10061000DF91CF911F910F91FF90EF90DF90CF90DE
:100620000C946002CF92DF92EF92FF920F931F9390
:10063000CF93DF93EC01F62E642F8C810E94B605D8
:100640008D818F3F19F060E00E94B6058F850F2DD8
:1006500010E084FF25C06E0187E0C80ED11CE12C9C
:10066000F12CB8010E2C02C0759567950A94E2F73B
:100670006170F60181916F010E94B605FFEFEF1ADC
:10068000FF0A88E0E816F10461F7CE01DF91CF910F
:100690001F910F91FF90EF90DF90CF900C9460022C
:1006A000B80184E0759567958A95E1F7CE010E94BF
:1006B000E5026F2DCE01DF91CF911F910F91FF9039
:1006C000EF90DF90CF900C94E50241E00E9412037E
:1006D00081E090E008951F920F920FB60F921124BF
:1006E0002F933F934F935F936F937F938F939F933A
:1006F000AF93BF93EF93FF938091B900887F8036CB
:1007000009F49CC068F5883209F45BC090F480312C
:1007100009F454C038F4882309F4F6C0883009F489
:100720004DC0F6C0883109F44CC0803209F45DC078
:10073000EFC0803409F468C048F4803309F455C030
:10074000883309F0E5C08093F501D8C0803509F4FD
:100750004FC0883509F45DC0883409F0D9C0D6C0CF
:10076000883909F4C7C0A8F4883709F467C038F499
:10077000883609F463C0803709F460C0C9C088387E
:1007800009F4B8C0803909F45FC0803809F0C0C0EE
:100790005BC0803B09F486C038F4803A09F466C037
:1007A000883A09F47FC0B4C0803C09F4A7C0883CF3
:1007B00009F4A4C0883B09F48AC0AAC08091D20180
:1007C00010C09091F4018091F301981770F5E091B9
:1007D000F40181E08E0F8093F401F0E0ED52FE4FC2
:1007E00080818093BB0085EC86C08093F5018EC02C
:1007F000E091F40181E08E0F8093F4018091BB00C1
:10080000F0E0ED52FE4F80839091F4018091F3016E
:100810006EC0E091F40181E08E0F8093F40180912D
:10082000BB00F0E0ED52FE4F80838091F601811114
:100830006DC081E08093D10184EA61C083E0809340
:10084000F7011092AA01CFCF8091AA01803208F05F
:1008500051C0E091AA0181E08E0F8093AA0180919E
:10086000BB00F0E0E657FE4F8083BDCF85EC809360
:10087000BC001092F7018091AA01803230F4E0911F
:10088000AA01F0E0E657FE4F10826091AA0170E0E5
:10089000E091AB01F091AC018AE891E009951092EA
:1008A000AA0136C084E08093F7011092890110926A
:1008B0008801E091AD01F091AE0109958091880128
:1008C000811105C081E08093880110926801E09158
:1008D000890181E08E0F80938901F0E0E859FE4F95
:1008E00080818093BB009091890180918801981745
:1008F00008F479CF85E88093BC000AC085EC80932A
:10090000BC001092F70104C01092F5010E94A201F0
:10091000FF91EF91BF91AF919F918F917F916F91D7
:100920005F914F913F912F910F900FBE0F901F90AD
:10093000189590E0FC01EC55FF4F2491FC01E05725
:10094000FF4F8491882399F090E0880F991FFC0154
:10095000EA57FF4FA591B491FC01E458FF4F8591F0
:1009600094918FB7F894EC91E22BEC938FBF08959C
:1009700040E0682F85EC92E00C941203282F309110
:100980001B02313208F04AC08091F7018111FCCF7F
:1009900090911A0242E04093F7012093F6012FEF65
:1009A0002093F5011092F4013093F301EAEFF1E0A6
:1009B000A3EDB1E020E0321721F041914D932F5F7C
:1009C000FACF1092D2012091D201990F922B9093DD
:1009D000D2019091D101913061F41092D1019091A6
:1009E000D2019093BB009091BC0093FDF8CF95ECA1
:1009F00001C095EE9093BC009091F7019230E1F325
:100A00009091F5019F3F79F08091F501803241F09E
:100A10008091F501803331F084E005C081E003C0AE
:100A200082E001C083E01092F90110921B02109243
:100A3000F80108959091F7019111FCCF982F813220
:100A400008F090E281E08093F7018093F6012FEFA8
:100A50002093F5011092F401290F2093F301809364
:100A6000D2018091D201806D8093D2018091D10119
:100A7000813061F41092D1018091D2018093BB004A
:100A80008091BC0083FDF8CF85EC01C085EE80939A
:100A9000BC008091F7018130E1F38091F401891766
:100AA00010F49091F401E3EDF1E0A1EBB1E080E00E
:100AB000891721F021912D938F5FFACF1092B00109
:100AC0008093AF0108958F929F92AF92BF920F9340
:100AD0001F93CF93DF93CDB7DEB7A1970FB6F894EE
:100AE000DEBF0FBECDBF19A2423008F44AE08E012E
:100AF0000F5D1F4F842E912CA12CB12CA5019401C8
:100B00000E94F909E62FB901CA0101501109EA3022
:100B100014F4E05D01C0E95CD801EC93232B242B95
:100B2000252B61F7B80185EC92E00E947802A1962E
:100B30000FB6F894DEBF0FBECDBFDF91CF911F91EE
:100B40000F91BF90AF909F908F900895682F70E0A5
:100B500080E090E04AE00C94630541E0682F85EC6A
:100B600092E00E94120381E090E0089590E0FC0181
:100B7000E859FF4F2491FC01EC55FF4F3491FC01E3
:100B8000E057FF4FE491EE2309F43CC0222339F1F2
:100B9000233091F038F42130A9F0223001F584B5EA
:100BA0008F7D12C0273091F02830A1F02430B9F4A5
:100BB000809180008F7D03C0809180008F7780932B
:100BC00080000DC084B58F7784BD09C08091B000CE
:100BD0008F7703C08091B0008F7D8093B000F0E0EC
:100BE000EE0FFF1FE458FF4FA591B4919FB7F89403
:100BF000611104C08C913095382302C0EC913E2BDA
:100C00003C939FBF0895CF93DF93823028F090915B
:100C1000D40298609093D4028093D8021092D902A3
:100C200080E48093DA0280E18093DB0280E58093A8
:100C3000DC028091C9020E9499048091CA028F3F10
:100C400011F00E9499048091CB020E949904C5EC96
:100C5000D2E09E01255C32408091D40284FD03C025
:100C600084E090E002C088E090E0219628173907E0
:100C700024F48E810E949904ECCF8BE39DE00197D0
:100C8000F1F760E08091C9020E94B60560E08091B2
:100C9000CB020E94B6058091CA028F3F19F060E036
:100CA0000E94B6058091D40284FD20C063E085ECEB
:100CB00092E00E94E502CBE4D6E4CE010197F1F781
:100CC00063E085EC92E00E94E5022197F1F763E092
:100CD00085EC92E00E94E50283E592E00197F1F74E
:100CE00062E085EC92E00E94E50215C080620E94FD
:100CF000B8048BE496E40197F1F78091D402806206
:100D00000E94B80483E592E00197F1F78091D40244
:100D100080620E94B8048091D40280620E94B8046C
:100D200084E08093D5028CE00E94B80481E00E94A8
:100D3000B8048BE39FE10197F1F782E08093D6023C
:100D400086E0DF91CF910C94B8043FB7F89480917E
:100D5000E2029091E302A091E402B091E50226B58F
:100D6000A89B05C02F3F19F00196A11DB11D3FBFE3
:100D7000BA2FA92F982F8827820F911DA11DB11D71
:100D8000BC01CD0142E0660F771F881F991F4A956D
:100D9000D1F708951F920F920FB60F9211242F933F
:100DA0003F938F939F93AF93BF938091DE02909177
:100DB000DF02A091E002B091E1023091DD0223E078
:100DC000230F2D3720F40196A11DB11D05C026E883
:100DD000230F0296A11DB11D2093DD028093DE0238
:100DE0009093DF02A093E002B093E1028091E202CF
:100DF0009091E302A091E402B091E5020196A11D59
:100E0000B11D8093E2029093E302A093E402B093B9
:100E1000E502BF91AF919F918F913F912F910F90DC
:100E20000FBE0F901F901895789484B5826084BD92
:100E300084B5816084BD85B5826085BD85B58160DE
:100E400085BD80916E00816080936E00109281005C
:100E50008091810082608093810080918100816017
:100E600080938100809180008160809380008091D8
:100E7000B10084608093B1008091B0008160809364
:100E8000B00080917A00846080937A0080917A002B
:100E9000826080937A0080917A00816080937A00EA
:100EA00080917A00806880937A001092C100E0916E
:100EB0002C02F0912D0282E08083E0912802F091D3
:100EC00029021082E0912A02F0912B028FEC80839C
:100ED00010923402E0913002F091310286E080837A
:100EE000E0912E02F0912F02808180618083E09159
:100EF0002E02F0912F02808188608083E0912E0283
:100F0000F0912F02808180688083E0912E02F09121
:100F10002F0280818F7D80831092B0011092AF01EB
:100F20001092F90110921B021092F70111E0109338
:100F3000F6011092D10161E082E10E94B60561E004
:100F400083E10E94B6058091B9008E7F8093B9003D
:100F50008091B9008D7F8093B90088E48093B800B8
:100F600085E48093BC0087E890E09093AE01809385
:100F7000AD0188E890E09093AC018093AB0182E0F2
:100F80000E9403061093F801A8E6DA2ED0921A0206
:100F90001092F90110921B0260E089EB92E00E942E
:100FA0002D0281E00E94BE0481E090E00E941A05BB
:100FB00089EB92E00E94E40187FFA7C060E371E043
:100FC0008CE192E00E94780264E471E08CE192E0AE
:100FD0000E94780280E591E00E949501C82F8BE481
:100FE00091E00E949501082F83E591E00E94950110
:100FF000D82F86E591E00E949501F82E89E591E0D1
:101000000E949501E82E1093F801D0921A021092D6
:10101000F90110921B0260E089EB92E00E942D0220
:101020001AE08E2D612F0E94D909682F660F860F56
:10103000880F682F6E0D89EB92E00E942D028F2D94
:10104000612F0E94D909682F660F860F880F682FBD
:101050006F0D89EB92E00E942D028D2F612F0E946F
:10106000D909682F660F860F880F682F6D0F89EBDF
:1010700092E00E942D02D0E08DE691E0C89F9001A1
:10108000C99F300DD89F300D1124802F90E0059618
:10109000820F931F9E012D5F3F4F36952795369502
:1010A0002795820F931F67E070E00E94E509682F83
:1010B00089EB92E00E942D02802F612F0E94D909B6
:1010C000682F660F860F880F682F600F89EB92E0FC
:1010D0000E942D0261E089EB92E00E942D028C2F8C
:1010E000612F0E94D909682F660F860F880F682F1D
:1010F0006C0F89EB92E00E942D0260E089EB92E098
:101100000E942D0281E00E94BE04DD24D394E8E613
:10111000CE2E1AEFD092F801C0921A021092F90165
:1011200010921B0260E089EB92E00E942D0281E0A8
:101130000E94BE0487E090E00E941A0589EB92E0CD
:101140000E94E4018F77982F92959F70082F919FAE
:10115000000D112489EB92E00E94E4019C013327E9
:1011600094E0359527959A95E1F7F82E129FF00CAB
:10117000112489EB92E00E94E4019C01332744E0B2
:10118000359527954A95E1F7E82E129FE00C11243A
:1011900089EB92E00E94E40189EB92E00E94E40175
:1011A0009C01332754E0359527955A95E1F7A82EF1
:1011B000129FA00C112489EB92E00E94E4019C0193
:1011C000332764E0359527956A95E1F7B82E129F8D
:1011D000B00C112489EB92E00E94E4019C013327BA
:1011E00074E0359527957A95E1F7129F800D1124CB
:1011F000C82FD0E0C053D84FE1E08091D8028111D0
:10120000E0E0E195F0E0EB53FD4F848980680E94B7
:10121000B8046CE571E085EC92E00E9478028A2DBA
:101220000E94A6058FE20E94AD058B2D0E94A605A7
:101230008FE20E94AD05BE01DD0F880B990B4AE0DD
:101240000E94630580E20E94AD05E091D802E23081
:1012500010F4E15001C0E1E0F0E0EB53FD4F848970
:1012600080680E94B80462E671E085EC92E00E941A
:10127000780229E02E1518F080E30E94AD058E2D2E
:101280000E94A6058AE30E94AD0589E08F1518F03B
:1012900080E30E94AD058F2D0E94A6058AE30E947F
:1012A000AD050A3018F480E30E94AD05802F0E943E
:1012B000A6050E94A5064B015C0188EE482E83E03E
:1012C000582E612C712C0E94A506DC01CB018819D7
:1012D0009909AA09BB09883E9340A105B10598F375
:1012E00021E0421A51086108710888EE880E83E0F7
:1012F000981EA11CB11C411451046104710419F71A
:101300000E948B0107CFECE1F2E01382128288EE9B
:1013100093E0A0E0B0E084839583A683B78324E0C4
:1013200031E03183208325EC30E03587248724ECBD
:1013300030E03787268720EC30E0318B208B21ECA2
:1013400030E0338B228B22EC30E0358B248B26EC83
:1013500030E0378B268B118E128E138E148EE9EBB4
:10136000F2E01382128284839583A683B78386E199
:1013700091E091838083E5ECF2E01382128288E2AF
:1013800091E09183808387E084838FEF858386E07B
:10139000868385E0878384E0808783E0818782E09D
:1013A00082871386148615861686178681E00C942C
:1013B0000306991B79E004C0991F961708F0961B45
:1013C000881F7A95C9F780950895AA1BBB1B51E128
:1013D00007C0AA1FBB1FA617B70710F0A61BB70BA5
:1013E000881F991F5A95A9F780959095BC01CD014A
:1013F0000895A1E21A2EAA1BBB1BFD010DC0AA1F56
:10140000BB1FEE1FFF1FA217B307E407F50720F06D
:10141000A21BB30BE40BF50B661F771F881F991FE8
:101420001A9469F760957095809590959B01AC0131
:10143000BD01CF010895EE0FFF1F0590F491E02D3F
:10144000099481E090E0F8940C94260AF894FFCF78
:10145000000000001C018900B3006901E400C20023
:10146000D600000000002D0200025D02D401F80148
:10147000E401D50100000000650389005D025C0203
:10148000525443206973204E4F542072756E6E691A
:101490006E6721000D0A004A616E20333020323021
:1014A00032330031363A34383A303600444154450C
:0814B0003A0054494D453A0091
:107E0000112484B714BE81FFF0D085E080938100F7
:107E100082E08093C00088E18093C10086E0809377
:107E2000C20080E18093C4008EE0C9D0259A86E02C
:107E300020E33CEF91E0309385002093840096BBD3
:107E4000B09BFECF1D9AA8958150A9F7CC24DD24C4
:107E500088248394B5E0AB2EA1E19A2EF3E0BF2EE7
:107E6000A2D0813461F49FD0082FAFD0023811F036
:107E7000013811F484E001C083E08DD089C08234E0
:107E800011F484E103C0853419F485E0A6D080C0E4
:107E9000853579F488D0E82EFF2485D0082F10E0AE
:107EA000102F00270E291F29000F111F8ED06801E7
:107EB0006FC0863521F484E090D080E0DECF843638
:107EC00009F040C070D06FD0082F6DD080E0C81688
:107ED00080E7D80618F4F601B7BEE895C0E0D1E017
:107EE00062D089930C17E1F7F0E0CF16F0E7DF06D8
:107EF00018F0F601B7BEE89568D007B600FCFDCFD4
:107F0000A601A0E0B1E02C9130E011968C91119780
:107F100090E0982F8827822B932B1296FA010C0160
:107F200087BEE89511244E5F5F4FF1E0A038BF0790
:107F300051F7F601A7BEE89507B600FCFDCF97BE46
:107F4000E89526C08437B1F42ED02DD0F82E2BD052
:107F50003CD0F601EF2C8F010F5F1F4F84911BD097
:107F6000EA94F801C1F70894C11CD11CFA94CF0C13
:107F7000D11C0EC0853739F428D08EE10CD085E9AC
:107F80000AD08FE07ACF813511F488E018D01DD067
:107F900080E101D065CF982F8091C00085FFFCCF94
:107FA0009093C60008958091C00087FFFCCF809118
:107FB000C00084FD01C0A8958091C6000895E0E648
:107FC000F0E098E1908380830895EDDF803219F02E
:107FD00088E0F5DFFFCF84E1DECF1F93182FE3DFCA
:107FE0001150E9F7F2DF1F91089580E0E8DFEE27F6
:047FF000FF270994CA
:027FFE00040479
:0400000300007E007B
:00000001FF
